{"abi":[{"type":"constructor","inputs":[{"name":"_name","type":"string","internalType":"string"},{"name":"_supply","type":"uint256","internalType":"uint256"}],"stateMutability":"nonpayable"},{"type":"function","name":"addToWhitelist","inputs":[{"name":"investor","type":"address","internalType":"address"}],"outputs":[],"stateMutability":"nonpayable"},{"type":"function","name":"allowance","inputs":[{"name":"owner","type":"address","internalType":"address"},{"name":"spender","type":"address","internalType":"address"}],"outputs":[{"name":"","type":"uint256","internalType":"uint256"}],"stateMutability":"view"},{"type":"function","name":"approve","inputs":[{"name":"spender","type":"address","internalType":"address"},{"name":"value","type":"uint256","internalType":"uint256"}],"outputs":[{"name":"","type":"bool","internalType":"bool"}],"stateMutability":"nonpayable"},{"type":"function","name":"balanceOf","inputs":[{"name":"account","type":"address","internalType":"address"}],"outputs":[{"name":"","type":"uint256","internalType":"uint256"}],"stateMutability":"view"},{"type":"function","name":"characterName","inputs":[],"outputs":[{"name":"","type":"string","internalType":"string"}],"stateMutability":"view"},{"type":"function","name":"decimals","inputs":[],"outputs":[{"name":"","type":"uint8","internalType":"uint8"}],"stateMutability":"view"},{"type":"function","name":"name","inputs":[],"outputs":[{"name":"","type":"string","internalType":"string"}],"stateMutability":"view"},{"type":"function","name":"owner","inputs":[],"outputs":[{"name":"","type":"address","internalType":"address"}],"stateMutability":"view"},{"type":"function","name":"renounceOwnership","inputs":[],"outputs":[],"stateMutability":"nonpayable"},{"type":"function","name":"symbol","inputs":[],"outputs":[{"name":"","type":"string","internalType":"string"}],"stateMutability":"view"},{"type":"function","name":"totalSupply","inputs":[],"outputs":[{"name":"","type":"uint256","internalType":"uint256"}],"stateMutability":"view"},{"type":"function","name":"transfer","inputs":[{"name":"to","type":"address","internalType":"address"},{"name":"amount","type":"uint256","internalType":"uint256"}],"outputs":[{"name":"","type":"bool","internalType":"bool"}],"stateMutability":"nonpayable"},{"type":"function","name":"transferFrom","inputs":[{"name":"from","type":"address","internalType":"address"},{"name":"to","type":"address","internalType":"address"},{"name":"value","type":"uint256","internalType":"uint256"}],"outputs":[{"name":"","type":"bool","internalType":"bool"}],"stateMutability":"nonpayable"},{"type":"function","name":"transferOwnership","inputs":[{"name":"newOwner","type":"address","internalType":"address"}],"outputs":[],"stateMutability":"nonpayable"},{"type":"function","name":"whitelist","inputs":[{"name":"","type":"address","internalType":"address"}],"outputs":[{"name":"","type":"bool","internalType":"bool"}],"stateMutability":"view"},{"type":"event","name":"Approval","inputs":[{"name":"owner","type":"address","indexed":true,"internalType":"address"},{"name":"spender","type":"address","indexed":true,"internalType":"address"},{"name":"value","type":"uint256","indexed":false,"internalType":"uint256"}],"anonymous":false},{"type":"event","name":"OwnershipTransferred","inputs":[{"name":"previousOwner","type":"address","indexed":true,"internalType":"address"},{"name":"newOwner","type":"address","indexed":true,"internalType":"address"}],"anonymous":false},{"type":"event","name":"Transfer","inputs":[{"name":"from","type":"address","indexed":true,"internalType":"address"},{"name":"to","type":"address","indexed":true,"internalType":"address"},{"name":"value","type":"uint256","indexed":false,"internalType":"uint256"}],"anonymous":false},{"type":"error","name":"ERC20InsufficientAllowance","inputs":[{"name":"spender","type":"address","internalType":"address"},{"name":"allowance","type":"uint256","internalType":"uint256"},{"name":"needed","type":"uint256","internalType":"uint256"}]},{"type":"error","name":"ERC20InsufficientBalance","inputs":[{"name":"sender","type":"address","internalType":"address"},{"name":"balance","type":"uint256","internalType":"uint256"},{"name":"needed","type":"uint256","internalType":"uint256"}]},{"type":"error","name":"ERC20InvalidApprover","inputs":[{"name":"approver","type":"address","internalType":"address"}]},{"type":"error","name":"ERC20InvalidReceiver","inputs":[{"name":"receiver","type":"address","internalType":"address"}]},{"type":"error","name":"ERC20InvalidSender","inputs":[{"name":"sender","type":"address","internalType":"address"}]},{"type":"error","name":"ERC20InvalidSpender","inputs":[{"name":"spender","type":"address","internalType":"address"}]},{"type":"error","name":"OwnableInvalidOwner","inputs":[{"name":"owner","type":"address","internalType":"address"}]},{"type":"error","name":"OwnableUnauthorizedAccount","inputs":[{"name":"account","type":"address","internalType":"address"}]}],"bytecode":{"object":"0x608060405234801561000f575f80fd5b50604051611f03380380611f038339818101604052810190610031919061067b565b33826040518060400160405280600381526020017f4950540000000000000000000000000000000000000000000000000000000000815250816003908161007891906108d9565b50806004908161008891906108d9565b5050505f73ffffffffffffffffffffffffffffffffffffffff168173ffffffffffffffffffffffffffffffffffffffff16036100fb575f6040517f1e4fbdf70000000000000000000000000000000000000000000000000000000081526004016100f291906109e7565b60405180910390fd5b61010a8161019a60201b60201c565b50816006908161011a91906108d9565b5061013e33670de0b6b3a7640000836101339190610a2d565b61025d60201b60201c565b600160075f3373ffffffffffffffffffffffffffffffffffffffff1673ffffffffffffffffffffffffffffffffffffffff1681526020019081526020015f205f6101000a81548160ff0219169083151502179055505050610afe565b5f60055f9054906101000a900473ffffffffffffffffffffffffffffffffffffffff1690508160055f6101000a81548173ffffffffffffffffffffffffffffffffffffffff021916908373ffffffffffffffffffffffffffffffffffffffff1602179055508173ffffffffffffffffffffffffffffffffffffffff168173ffffffffffffffffffffffffffffffffffffffff167f8be0079c531659141344cd1fd0a4f28419497f9722a3daafe3b4186f6b6457e060405160405180910390a35050565b5f73ffffffffffffffffffffffffffffffffffffffff168273ffffffffffffffffffffffffffffffffffffffff16036102cd575f6040517fec442f050000000000000000000000000000000000000000000000000000000081526004016102c491906109e7565b60405180910390fd5b6102de5f83836102e260201b60201c565b5050565b5f73ffffffffffffffffffffffffffffffffffffffff168373ffffffffffffffffffffffffffffffffffffffff1603610332578060025f8282546103269190610a6e565b92505081905550610400565b5f805f8573ffffffffffffffffffffffffffffffffffffffff1673ffffffffffffffffffffffffffffffffffffffff1681526020019081526020015f20549050818110156103bb578381836040517fe450d38c0000000000000000000000000000000000000000000000000000000081526004016103b293929190610ab0565b60405180910390fd5b8181035f808673ffffffffffffffffffffffffffffffffffffffff1673ffffffffffffffffffffffffffffffffffffffff1681526020019081526020015f2081905550505b5f73ffffffffffffffffffffffffffffffffffffffff168273ffffffffffffffffffffffffffffffffffffffff1603610447578060025f8282540392505081905550610491565b805f808473ffffffffffffffffffffffffffffffffffffffff1673ffffffffffffffffffffffffffffffffffffffff1681526020019081526020015f205f82825401925050819055505b8173ffffffffffffffffffffffffffffffffffffffff168373ffffffffffffffffffffffffffffffffffffffff167fddf252ad1be2c89b69c2b068fc378daa952ba7f163c4a11628f55a4df523b3ef836040516104ee9190610ae5565b60405180910390a3505050565b5f604051905090565b5f80fd5b5f80fd5b5f80fd5b5f80fd5b5f601f19601f8301169050919050565b7f4e487b71000000000000000000000000000000000000000000000000000000005f52604160045260245ffd5b61055a82610514565b810181811067ffffffffffffffff8211171561057957610578610524565b5b80604052505050565b5f61058b6104fb565b90506105978282610551565b919050565b5f67ffffffffffffffff8211156105b6576105b5610524565b5b6105bf82610514565b9050602081019050919050565b8281835e5f83830152505050565b5f6105ec6105e78461059c565b610582565b90508281526020810184848401111561060857610607610510565b5b6106138482856105cc565b509392505050565b5f82601f83011261062f5761062e61050c565b5b815161063f8482602086016105da565b91505092915050565b5f819050919050565b61065a81610648565b8114610664575f80fd5b50565b5f8151905061067581610651565b92915050565b5f806040838503121561069157610690610504565b5b5f83015167ffffffffffffffff8111156106ae576106ad610508565b5b6106ba8582860161061b565b92505060206106cb85828601610667565b9150509250929050565b5f81519050919050565b7f4e487b71000000000000000000000000000000000000000000000000000000005f52602260045260245ffd5b5f600282049050600182168061072357607f821691505b602082108103610736576107356106df565b5b50919050565b5f819050815f5260205f209050919050565b5f6020601f8301049050919050565b5f82821b905092915050565b5f600883026107987fffffffffffffffffffffffffffffffffffffffffffffffffffffffffffffffff8261075d565b6107a2868361075d565b95508019841693508086168417925050509392505050565b5f819050919050565b5f6107dd6107d86107d384610648565b6107ba565b610648565b9050919050565b5f819050919050565b6107f6836107c3565b61080a610802826107e4565b848454610769565b825550505050565b5f90565b61081e610812565b6108298184846107ed565b505050565b5b8181101561084c576108415f82610816565b60018101905061082f565b5050565b601f821115610891576108628161073c565b61086b8461074e565b8101602085101561087a578190505b61088e6108868561074e565b83018261082e565b50505b505050565b5f82821c905092915050565b5f6108b15f1984600802610896565b1980831691505092915050565b5f6108c983836108a2565b9150826002028217905092915050565b6108e2826106d5565b67ffffffffffffffff8111156108fb576108fa610524565b5b610905825461070c565b610910828285610850565b5f60209050601f831160018114610941575f841561092f578287015190505b61093985826108be565b8655506109a0565b601f19841661094f8661073c565b5f5b8281101561097657848901518255600182019150602085019450602081019050610951565b86831015610993578489015161098f601f8916826108a2565b8355505b6001600288020188555050505b505050505050565b5f73ffffffffffffffffffffffffffffffffffffffff82169050919050565b5f6109d1826109a8565b9050919050565b6109e1816109c7565b82525050565b5f6020820190506109fa5f8301846109d8565b92915050565b7f4e487b71000000000000000000000000000000000000000000000000000000005f52601160045260245ffd5b5f610a3782610648565b9150610a4283610648565b9250828202610a5081610648565b91508282048414831517610a6757610a66610a00565b5b5092915050565b5f610a7882610648565b9150610a8383610648565b9250828201905080821115610a9b57610a9a610a00565b5b92915050565b610aaa81610648565b82525050565b5f606082019050610ac35f8301866109d8565b610ad06020830185610aa1565b610add6040830184610aa1565b949350505050565b5f602082019050610af85f830184610aa1565b92915050565b6113f880610b0b5f395ff3fe608060405234801561000f575f80fd5b50600436106100f3575f3560e01c806386aba83011610095578063a9059cbb11610064578063a9059cbb14610275578063dd62ed3e146102a5578063e43252d7146102d5578063f2fde38b146102f1576100f3565b806386aba830146101eb5780638da5cb5b1461020957806395d89b41146102275780639b19251a14610245576100f3565b806323b872dd116100d157806323b872dd14610163578063313ce5671461019357806370a08231146101b1578063715018a6146101e1576100f3565b806306fdde03146100f7578063095ea7b31461011557806318160ddd14610145575b5f80fd5b6100ff61030d565b60405161010c9190610fa1565b60405180910390f35b61012f600480360381019061012a9190611052565b61039d565b60405161013c91906110aa565b60405180910390f35b61014d6103bf565b60405161015a91906110d2565b60405180910390f35b61017d600480360381019061017891906110eb565b6103c8565b60405161018a91906110aa565b60405180910390f35b61019b6103f6565b6040516101a89190611156565b60405180910390f35b6101cb60048036038101906101c6919061116f565b6103fe565b6040516101d891906110d2565b60405180910390f35b6101e9610443565b005b6101f3610456565b6040516102009190610fa1565b60405180910390f35b6102116104e2565b60405161021e91906111a9565b60405180910390f35b61022f61050a565b60405161023c9190610fa1565b60405180910390f35b61025f600480360381019061025a919061116f565b61059a565b60405161026c91906110aa565b60405180910390f35b61028f600480360381019061028a9190611052565b6105b7565b60405161029c91906110aa565b60405180910390f35b6102bf60048036038101906102ba91906111c2565b6106dc565b6040516102cc91906110d2565b60405180910390f35b6102ef60048036038101906102ea919061116f565b61075e565b005b61030b6004803603810190610306919061116f565b6107be565b005b60606003805461031c9061122d565b80601f01602080910402602001604051908101604052809291908181526020018280546103489061122d565b80156103935780601f1061036a57610100808354040283529160200191610393565b820191905f5260205f20905b81548152906001019060200180831161037657829003601f168201915b5050505050905090565b5f806103a7610842565b90506103b4818585610849565b600191505092915050565b5f600254905090565b5f806103d2610842565b90506103df85828561085b565b6103ea8585856108ed565b60019150509392505050565b5f6012905090565b5f805f8373ffffffffffffffffffffffffffffffffffffffff1673ffffffffffffffffffffffffffffffffffffffff1681526020019081526020015f20549050919050565b61044b6109dd565b6104545f610a64565b565b600680546104639061122d565b80601f016020809104026020016040519081016040528092919081815260200182805461048f9061122d565b80156104da5780601f106104b1576101008083540402835291602001916104da565b820191905f5260205f20905b8154815290600101906020018083116104bd57829003601f168201915b505050505081565b5f60055f9054906101000a900473ffffffffffffffffffffffffffffffffffffffff16905090565b6060600480546105199061122d565b80601f01602080910402602001604051908101604052809291908181526020018280546105459061122d565b80156105905780601f1061056757610100808354040283529160200191610590565b820191905f5260205f20905b81548152906001019060200180831161057357829003601f168201915b5050505050905090565b6007602052805f5260405f205f915054906101000a900460ff1681565b5f60075f3373ffffffffffffffffffffffffffffffffffffffff1673ffffffffffffffffffffffffffffffffffffffff1681526020019081526020015f205f9054906101000a900460ff16610641576040517f08c379a0000000000000000000000000000000000000000000000000000000008152600401610638906112a7565b60405180910390fd5b60075f8473ffffffffffffffffffffffffffffffffffffffff1673ffffffffffffffffffffffffffffffffffffffff1681526020019081526020015f205f9054906101000a900460ff166106ca576040517f08c379a00000000000000000000000000000000000000000000000000000000081526004016106c19061130f565b60405180910390fd5b6106d48383610b27565b905092915050565b5f60015f8473ffffffffffffffffffffffffffffffffffffffff1673ffffffffffffffffffffffffffffffffffffffff1681526020019081526020015f205f8373ffffffffffffffffffffffffffffffffffffffff1673ffffffffffffffffffffffffffffffffffffffff1681526020019081526020015f2054905092915050565b6107666109dd565b600160075f8373ffffffffffffffffffffffffffffffffffffffff1673ffffffffffffffffffffffffffffffffffffffff1681526020019081526020015f205f6101000a81548160ff02191690831515021790555050565b6107c66109dd565b5f73ffffffffffffffffffffffffffffffffffffffff168173ffffffffffffffffffffffffffffffffffffffff1603610836575f6040517f1e4fbdf700000000000000000000000000000000000000000000000000000000815260040161082d91906111a9565b60405180910390fd5b61083f81610a64565b50565b5f33905090565b6108568383836001610b49565b505050565b5f61086684846106dc565b90507fffffffffffffffffffffffffffffffffffffffffffffffffffffffffffffffff81146108e757818110156108d8578281836040517ffb8f41b20000000000000000000000000000000000000000000000000000000081526004016108cf9392919061132d565b60405180910390fd5b6108e684848484035f610b49565b5b50505050565b5f73ffffffffffffffffffffffffffffffffffffffff168373ffffffffffffffffffffffffffffffffffffffff160361095d575f6040517f96c6fd1e00000000000000000000000000000000000000000000000000000000815260040161095491906111a9565b60405180910390fd5b5f73ffffffffffffffffffffffffffffffffffffffff168273ffffffffffffffffffffffffffffffffffffffff16036109cd575f6040517fec442f050000000000000000000000000000000000000000000000000000000081526004016109c491906111a9565b60405180910390fd5b6109d8838383610d18565b505050565b6109e5610842565b73ffffffffffffffffffffffffffffffffffffffff16610a036104e2565b73ffffffffffffffffffffffffffffffffffffffff1614610a6257610a26610842565b6040517f118cdaa7000000000000000000000000000000000000000000000000000000008152600401610a5991906111a9565b60405180910390fd5b565b5f60055f9054906101000a900473ffffffffffffffffffffffffffffffffffffffff1690508160055f6101000a81548173ffffffffffffffffffffffffffffffffffffffff021916908373ffffffffffffffffffffffffffffffffffffffff1602179055508173ffffffffffffffffffffffffffffffffffffffff168173ffffffffffffffffffffffffffffffffffffffff167f8be0079c531659141344cd1fd0a4f28419497f9722a3daafe3b4186f6b6457e060405160405180910390a35050565b5f80610b31610842565b9050610b3e8185856108ed565b600191505092915050565b5f73ffffffffffffffffffffffffffffffffffffffff168473ffffffffffffffffffffffffffffffffffffffff1603610bb9575f6040517fe602df05000000000000000000000000000000000000000000000000000000008152600401610bb091906111a9565b60405180910390fd5b5f73ffffffffffffffffffffffffffffffffffffffff168373ffffffffffffffffffffffffffffffffffffffff1603610c29575f6040517f94280d62000000000000000000000000000000000000000000000000000000008152600401610c2091906111a9565b60405180910390fd5b8160015f8673ffffffffffffffffffffffffffffffffffffffff1673ffffffffffffffffffffffffffffffffffffffff1681526020019081526020015f205f8573ffffffffffffffffffffffffffffffffffffffff1673ffffffffffffffffffffffffffffffffffffffff1681526020019081526020015f20819055508015610d12578273ffffffffffffffffffffffffffffffffffffffff168473ffffffffffffffffffffffffffffffffffffffff167f8c5be1e5ebec7d5bd14f71427d1e84f3dd0314c0f7b2291e5b200ac8c7c3b92584604051610d0991906110d2565b60405180910390a35b50505050565b5f73ffffffffffffffffffffffffffffffffffffffff168373ffffffffffffffffffffffffffffffffffffffff1603610d68578060025f828254610d5c919061138f565b92505081905550610e36565b5f805f8573ffffffffffffffffffffffffffffffffffffffff1673ffffffffffffffffffffffffffffffffffffffff1681526020019081526020015f2054905081811015610df1578381836040517fe450d38c000000000000000000000000000000000000000000000000000000008152600401610de89392919061132d565b60405180910390fd5b8181035f808673ffffffffffffffffffffffffffffffffffffffff1673ffffffffffffffffffffffffffffffffffffffff1681526020019081526020015f2081905550505b5f73ffffffffffffffffffffffffffffffffffffffff168273ffffffffffffffffffffffffffffffffffffffff1603610e7d578060025f8282540392505081905550610ec7565b805f808473ffffffffffffffffffffffffffffffffffffffff1673ffffffffffffffffffffffffffffffffffffffff1681526020019081526020015f205f82825401925050819055505b8173ffffffffffffffffffffffffffffffffffffffff168373ffffffffffffffffffffffffffffffffffffffff167fddf252ad1be2c89b69c2b068fc378daa952ba7f163c4a11628f55a4df523b3ef83604051610f2491906110d2565b60405180910390a3505050565b5f81519050919050565b5f82825260208201905092915050565b8281835e5f83830152505050565b5f601f19601f8301169050919050565b5f610f7382610f31565b610f7d8185610f3b565b9350610f8d818560208601610f4b565b610f9681610f59565b840191505092915050565b5f6020820190508181035f830152610fb98184610f69565b905092915050565b5f80fd5b5f73ffffffffffffffffffffffffffffffffffffffff82169050919050565b5f610fee82610fc5565b9050919050565b610ffe81610fe4565b8114611008575f80fd5b50565b5f8135905061101981610ff5565b92915050565b5f819050919050565b6110318161101f565b811461103b575f80fd5b50565b5f8135905061104c81611028565b92915050565b5f806040838503121561106857611067610fc1565b5b5f6110758582860161100b565b92505060206110868582860161103e565b9150509250929050565b5f8115159050919050565b6110a481611090565b82525050565b5f6020820190506110bd5f83018461109b565b92915050565b6110cc8161101f565b82525050565b5f6020820190506110e55f8301846110c3565b92915050565b5f805f6060848603121561110257611101610fc1565b5b5f61110f8682870161100b565b93505060206111208682870161100b565b92505060406111318682870161103e565b9150509250925092565b5f60ff82169050919050565b6111508161113b565b82525050565b5f6020820190506111695f830184611147565b92915050565b5f6020828403121561118457611183610fc1565b5b5f6111918482850161100b565b91505092915050565b6111a381610fe4565b82525050565b5f6020820190506111bc5f83018461119a565b92915050565b5f80604083850312156111d8576111d7610fc1565b5b5f6111e58582860161100b565b92505060206111f68582860161100b565b9150509250929050565b7f4e487b71000000000000000000000000000000000000000000000000000000005f52602260045260245ffd5b5f600282049050600182168061124457607f821691505b60208210810361125757611256611200565b5b50919050565b7f4e6f742077686974656c697374656400000000000000000000000000000000005f82015250565b5f611291600f83610f3b565b915061129c8261125d565b602082019050919050565b5f6020820190508181035f8301526112be81611285565b9050919050565b7f526563697069656e74206e6f742077686974656c6973746564000000000000005f82015250565b5f6112f9601983610f3b565b9150611304826112c5565b602082019050919050565b5f6020820190508181035f830152611326816112ed565b9050919050565b5f6060820190506113405f83018661119a565b61134d60208301856110c3565b61135a60408301846110c3565b949350505050565b7f4e487b71000000000000000000000000000000000000000000000000000000005f52601160045260245ffd5b5f6113998261101f565b91506113a48361101f565b92508282019050808211156113bc576113bb611362565b5b9291505056fea2646970667358221220403cf947625acbe6bdaeba05aaf151ec431b61e6f1eaef922e05a3e9954a41e964736f6c634300081a0033","linkReferences":{}},"methodIdentifiers":{"addToWhitelist(address)":"e43252d7","allowance(address,address)":"dd62ed3e","approve(address,uint256)":"095ea7b3","balanceOf(address)":"70a08231","characterName()":"86aba830","decimals()":"313ce567","name()":"06fdde03","owner()":"8da5cb5b","renounceOwnership()":"715018a6","symbol()":"95d89b41","totalSupply()":"18160ddd","transfer(address,uint256)":"a9059cbb","transferFrom(address,address,uint256)":"23b872dd","transferOwnership(address)":"f2fde38b","whitelist(address)":"9b19251a"},"id":25}